:100000000C9412090C942D090C942D090C942D09B3
:100010000C942D090C942D090C942D090C942D0988
:100020000C942D090C942D090C941A0F0C94760F36
:100030000C942D090C942D090C942D090C942D0968
:100040000C942D090C942D090C942D090C942D0958
:100050000C942D090C942D090C942D090C942D0948
:100060000C942D090C942D090C942D090C942D0938
:100070000C942D090C942D090C942D090C942D0928
:100080000C942D090C942D090C942D090C942D0918
:100090000C942D090C942D090C942D090C942D0908
:1000A0000C942D090C942D090C942D09DD0DE50DF2
:1000B000EB0DF10DF70DFD0D030E090E0000640EA2
:1000C000640E640E640E0000640E640E0000640E84
:1000D000640E640E640E0000640E640E640E640E02
:1000E000640E0000000000000000640E640E640E48
:1000F000640E640E640E640E640E640E640E640E70
:10010000640E640E640E640E640E640E640E640E5F
:10011000640E640E640E640E640E640E0000000033
:10012000640E640E640E640E640E640E640E640E3F
:10013000640E640E640E640E640E640E640E640E2F
:10014000640E640E640E640E640E640E640E640E1F
:10015000640E640E0000640E640E640E640E640E81
:10016000640E640E000000000000000000000000AB
:10017000000000000000000000000000000000007F
:10018000000000000000000000000000000000006F
:10019000000000000000000000000000000000005F
:1001A000000000000000000000000000000000004F
:1001B000000000000000000000000000000000003F
:1001C000000000000000000000000000000000002F
:1001D000000000000000000000000000000000001F
:1001E000000000000000000000000000000000000F
:1001F0000000640E640E640E640E640E640E640EE1
:10020000640E640E640E640E640E000000000000B4
:1002100000000000000000000000000000000000DE
:10022000640E00000000000000000000000000005C
:100230000000000000000000000000000000640E4C
:10024000640E00000000000000000000000000003C
:10025000000000000000640E640E640E640E0000D6
:10026000000000000000000000000000000000008E
:100270000000640E640E640E640E000000000000B6
:100280000000000000000000000000000000640EFC
:10029000640E640E640E0000000000000000000008
:1002A00000000000000000000000640E640E640EF8
:1002B000640E0000000000000000000000000000CC
:1002C000000000000000000000000000000000002E
:1002D000000000000000000000000000000000001E
:1002E000000000000000000000000000000000000E
:1002F00000000000000000000000000000000000FE
:100740000000000000000000000000000000640E37
:10075000640E640E640E7D0E640E640E7B0E640ED9
:10076000640E640E640E0000640E640E640E640E6B
:10077000640E0000000000000000640E640E640EB1
:10078000640E640E640E640E640E640E640E640ED9
:10079000640E640E640E640E640E640E640E640EC9
:1007A000640E640E640E640E640E640E000000009D
:1007B000640E640E640E640E640E640E640E640EA9
:1007C000640E640E640E640E640E640E640E640E99
:1007D000640E640E640E640E640E640E640E640E89
:1007E000640E640E660D640E640E640E640E640E78
:1007F000640E640E000000000000000000007D0E8A
:1008000000000000000000000000000000000000E8
:1008100000000000000000000000000000000000D8
:1008200000000000000000000000000000000000C8
:1008300000000000000000000000000000000000B8
:1008400000000000000000000000000000000000A8
:100850000000000000000000000000000000000098
:100860000000000000000000000000000000000088
:100870007D0E0000000000000000000000000000ED
:100880000000640E640E640E640E640E640E640E4A
:10089000640E640E640E640E640E0000000000001E
:1008A0000000000000000000000000000000000048
:1008B000640E0000000000000000000000000000C6
:1008C0000000000000000000000000000000640EB6
:1008D000640E0000000000000000000000000000A6
:1008E000000000000000640E640E640E640E000040
:1008F00000000000000000000000000000000000F8
:100900000000640E640E640E640E0000000000001F
:100910000000000000000000000000000000640E65
:10092000640E640E640E0000910E000000000000D2
:100930000000000000007F0E0000640E640E640ED4
:10094000640E000000000000000000000000000035
:100950000000000000000000000000000000000097
:100960000000000000000000000000000000000087
:100970000000000000000000000000000000000077
:100980000000000000000000000000000000000067
:100DD000000000000000000000000000003D292C81
:100DE0003C013A4301442A2D4500E3E0E1E2E300FF
:100DF000000000E75051524FE11D1B061905342E2B
:100E00001110363738E1E0041607090A00000B0D0F
:100E10000E0F33282B141A0815172F301C180C121C
:100E20001331351E1F202122002F23242526272A97
:100E300000000000000100000000000000000000B1
:100E400000000000000000000000000000000000A2
:100E50000000000000000000000000000000000092
:100E60000000000000000000000000000000010081
:100E7000000000000000003A3B3C3D3E3F40414244
:100E80004344450000000000000000000000620034
:100E900000000000000000000000000000632800C7
:100EA000000000000000000000595A5B280000000C
:100EB000000000000000005C5D5E570000000000C4
:100EC00000000000005F60615700000000000000AB
:100ED00000020053545556000000000000000000BE
:100EE0000000000000000000000000000000000002
:100EF00000000000000000000000000000000000F2
:100F000000000000000000000000000000000000E1
:100F100000000000000000000000000000000000D1
:1011200000000000000100000C121200020000ABE1
:10113000112200220000CD113F00210000BD110945
:1011400000030000A71104010309048D1118020314
:10115000090455113636034500720067006F0044DC
:10116000006F00780020006500720067006F006E5D
:10117000006F006D006900630020006B006500795E
:101180000062006F006100720064000000180375C7
:10119000006E0073007000650063006900660069FE
:1011A0000065006400000004030904090222000134
:1011B0000100C032090400000103010100092111EE
:1011C000010001223F000705830308000105010912
:1011D00006A10175019508050719E029E715002505
:1011E00001810295017508810395057501050819AE
:1011F000012905910295017503910395067508155E
:101200000025680507190029688100C01201000245
:1012100000000020501D28600001010200010000B4
:1012200001C1060011241FBECFEFDAE0DEBFCDBF43
:1012300011E0A0E0B1E0ECEAF1E202C005900D920D
:10124000AA31B107D9F722E0AAE1B1E001C01D92AD
:10125000A636B207E1F742D0A7C70C940000209150
:10126000620290913702E091380280916502222358
:1012700081F024E5E29FF00111242EE0929FE00D21
:10128000F11D1124E80FF11DEE0FFF1FE45BF84F75
:101290000FC024E5E29FF00111242EE0929FE00DA3
:1012A000F11D1124E80FF11DEE0FFF1FE454FF4F55
:1012B00085919491FC01892B09F009940895E0919E
:1012C0001A01E81748F0F0E0E81BF109EE0FFF1FE4
:1012D000E75CFD4F8081089580E008952BD18CE07C
:1012E00090E0909389008093880090938B00809386
:1012F0008A0090938D0080938C00259A269A279AD5
:1013000047D55DD58823E9F38FE790E09093890076
:10131000809388002FE732E440E121503040404084
:10132000E1F700C0000090938B0080938A002FE7C4
:1013300032E440E1215030404040E1F700C000007D
:1013400090938D0080938C002FE732E440E1215090
:1013500030404040E1F700C00000259826982798CB
:10136000909389008093880090938B0080938A00EB
:1013700090938D0080938C008EE0D82E8091140184
:1013800090911501209116013091170130931501AC
:10139000209314019093170180931601D6D01092D8
:1013A000E2018091E201863008F049C010926302A8
:1013B000E0906302F090E2018DE08E15E0F10E2DD9
:1013C00010E0E0911601F0911701DF9CC00111249B
:1013D000E80FF91FE00FF11F208120936202E091D6
:1013E0001401F0911501E80FF91FE00FF11F308192
:1013F000309361022317C9F0EC01CD51DE4F222357
:1014000041F080E05CDF80933802C00FD11F8883F9
:1014100005C0C00FD11F888180933802F092370237
:10142000E0926502109264021ADF809163028F5F7E
:1014300080936302BDCFF394F092E201B2CFC2D4A5
:101440008FE19EE40197F1F700C000008091D80180
:1014500080FF02C0259A01C025988091D80181FFA4
:1014600002C0269A01C026988091D80182FF02C04E
:10147000279A01C027988091D8018091D8017ECF0A
:10148000E1E0F1E021E030E09191911113C0F90128
:10149000E050FF4F91E09083E0911A01EF5FE093FD
:1014A0001A01F0E0EE0FFF1FE75CFD4F8083218300
:1014B000822F08952F5F3F4F2431310529F780E0B7
:1014C0000895CF93DF9340911A0191E0A82FB0E0E7
:1014D000A050BF4F491748F1E92FF0E0EE0FFF1F72
:1014E000E75CFD4F218128131EC0292F30E094179F
:1014F00081F0E901CC0FDD1FC55CDD4F5881220F63
:10150000331FF901E75CFD4F5083298121839F5FE1
:10151000ECCF220F331FF901E75CFD4F10821182DF
:101520001C924FEF490F9F5FD5CF40931A01DF9177
:10153000CF9108951AD0811104C027D2811103C020
:10154000089581E0089582E00895CF93DF93EC0140
:10155000D5D0811106C0CE0143D2882319F082E094
:1015600001C081E0DF91CF910895E1E6F0E080E8ED
:101570008083108256985E9824982C9825982698F7
:10158000279889EA8093800089E080938100A8D21F
:101590003F9885E08A95F1F70000579885E08A9595
:1015A000F1F70000549885E08A95F1F7000055980E
:1015B00085E08A95F1F700006E9885E08A95F1F74D
:1015C0000000479A85E08A95F1F700005F9A85E070
:1015D0008A95F1F700005C9A85E08A95F1F70000A2
:1015E0005D9A85E08A95F1F70000769A85E08A9504
:1015F000F1F70000879885E08A95F1F7000086985A
:1016000085E08A95F1F70000859885E08A95F1F7E5
:101610000000849885E08A95F1F70000819885E0C4
:101620008A95F1F70000809885E08A95F1F700002F
:10163000209885E08A95F1F70000219885E08A9549
:10164000F1F70000229885E08A95F1F700002398D1
:1016500085E08A95F1F70000529885E08A95F1F7C8
:101660000000539885E08A95F1F700003E9885E0E8
:101670008A95F1F700008F9A85E08A95F1F70000CE
:101680008E9A85E08A95F1F700008D9A85E08A951B
:10169000F1F700008C9A85E08A95F1F70000899AAD
:1016A00085E08A95F1F70000889A85E08A95F1F740
:1016B0000000289885E08A95F1F70000299885E0D8
:1016C0008A95F1F700002A9885E08A95F1F70000E5
:1016D0002B9885E08A95F1F700005A9885E08A9565
:1016E000F1F700005B9885E08A95F1F700004698D5
:1016F00085E08A95F1F7000080E00895CF93DF93AD
:10170000FC01209A85E08A95F1F700008FB1809561
:10171000881F8827881F87839FB181E096FB9927C0
:1017200090F99827958B9FB195FB992790F9982769
:1017300093A39FB192959170982791AB9FB1969585
:101740009170982797AF9FB1DF01AA5BBF4F91704F
:10175000982717969C931797209895E09A95F1F7FC
:101760000000219A95E09A95F1F700009FB19095BD
:10177000991F9927991F90879FB196FB992790F9F8
:101780009827968B9FB195FB992790F9982794A35A
:101790009FB192959170982792AB9FB1EF01C05C79
:1017A000DF4F96959170982798839FB191709827F5
:1017B00018969C931897219895E09A95F1F7000058
:1017C000229A95E09A95F1F700009FB19095991FA4
:1017D0009927991F91879FB196FB992790F9982790
:1017E000978B9FB195FB992790F9982795A39FB167
:1017F00092959170982793AB9FB121969695917091
:10180000982798839FB19170982719969C93199760
:10181000229895E09A95F1F70000239A95E09A9521
:10182000F1F700009FB19095991F9927991F928712
:101830009FB196FB992790F99827908F9FB195FBC0
:10184000992790F9982796A39FB192959170982720
:1018500094AB9FB1219696959170982798839FB1EC
:10186000917098271A969C931A97239895E09A95C9
:10187000F1F70000529A95E09A95F1F700009FB1B8
:101880009095991F9927991F93879FB196FB992748
:1018900090F99827918F9FB195FB992790F99827F8
:1018A00097A39FB192959170982795AB9FB1219680
:1018B00096959170982798839FB1917098271B9661
:1018C0009C931B97529895E09A95F1F70000539AD4
:1018D00095E09A95F1F700009FB19095991F99278F
:1018E000991F94879FB196FB992790F99827928F1B
:1018F0009FB195FB992790F9982790A79FB1929552
:101900009170982796AB9FB12196969591709827E4
:1019100098839FB1917098271C969C931C9753981D
:1019200095E09A95F1F700003E9A95E09A95F1F7C7
:1019300000009FB19095991F9927991F95879FB196
:1019400096FB992790F99827938F9FB195FB99273C
:1019500090F9982791A79FB192959170982797AB8E
:101960009FB1EB5BFF4F96959170982790839FB145
:10197000917089271D968C933E9885E08A95F1F7A2
:10198000000080E0DF91CF910895CF93B2D080E442
:10199000CFD0C82F811120C080E0CAD080E8C8D045
:1019A0008FEFC6D0BDD0A5D080E4C2D0C82F8111A2
:1019B00013C08CE0BDD080E8BBD08FEFB9D0B0D0E1
:1019C00098D080E4B5D0C82F811106C084E1B0D092
:1019D0008FEFAED08FEFACD0A3D08C2FCF910895E6
:1019E000BF92CF92DF92EF92FF920F931F93CF930C
:1019F000DF931F92CDB7DEB78C01C7DFB82E8823E7
:101A000079F086E09801295F3F4FF8011192E217C3
:101A1000F307E1F78150025F1F4F8111F3CF4AC0F6
:101A2000E12CF12CCC24C394D12C63D080E480D061
:101A300082E17ED0C6010E2C01C0880F0A94EAF71D
:101A4000809576D06DD055D080E472D083E170D08F
:101A500050D081E46DD0CE01019688D061D049810B
:101A600050E0F801EE0DFF1D25E030E0CA01022E26
:101A700002C0959587950A94E2F78170992761E0F5
:101A8000862781708083215031093E962F3F8FEF4A
:101A9000380761F76FEFE61AF60A87E0E816F104F7
:101AA00009F0C3CF26D080E443D082E141D08FEF4C
:101AB0003FD036D08B2D0F90DF91CF911F910F919A
:101AC000FF90EF90DF90CF90BF90089516D117D17F
:101AD00018D119D11AD11BD11CD11DD11ED11FC1B2
:101AE000E9EBF0E080818C7F808388E48093B8000C
:101AF000089584EA8093BC008091BC0087FFFCCFEE
:101B00008091B900887F883049F08091B900887F42
:101B1000803121F08091B900887F089580E0089598
:101B200084E98093BC008091BC0084FDFCCF0895C3
:101B30008093BB0084E88093BC008091BC0087FF49
:101B4000FCCF8091B900887F883171F08091B90015
:101B5000887F883249F08091B900887F803421F0F5
:101B60008091B900887F089580E0089524EC209347
:101B7000BC002091BC0027FFFCCF2091BB00FC01E2
:101B800020838091B900887F803521F08091B90051
:101B9000887F089580E00895962F662309F45AC03F
:101BA000462F50E0FA01E05EF109E830F105B8F5A2
:101BB000EA5AFF4F9091E001F1C2882311F0916041
:101BC00001C09E7F9093E0010895882311F09260F8
:101BD000F9CF9D7FF7CF882311F09460F3CF9B7FDF
:101BE000F1CF882311F09860EDCF977FEBCF88235A
:101BF00011F09061E7CF9F7EE5CF882311F09062CE
:101C0000E1CF9F7DDFCF882311F09064DBCF9F7BF6
:101C1000D9CF882311F09068D5CF9F77D3CFEAED45
:101C2000F1E020E030E04081882339F041110CC020
:101C3000F901E652FE4F90830895941305C0F9010F
:101C4000E652FE4F108208952F5F3F4F31962630A7
:101C5000310549F70895CF93DF93C82FD0E0CC0F1B
:101C6000DD1FCD53DE4F88812CDC19821882DF9175
:101C7000CF9108950F931F93CF9390913702E091E6
:101C8000380224E5E29FF00111242EE0929FE00D3E
:101C9000F11D112490916502E90FF11DE452F24FFC
:101CA000C491082F10E0000F111F0D531E4FF801B3
:101CB000808107DC8C2FE4DB90E0F8019183808346
:101CC000CF911F910F91089580913702E0913802D2
:101CD00094E5E99FF00111249EE0899FE00DF11D3C
:101CE000112480916502E80FF11DE452F24F6491D6
:101CF0008091620251CF81E0BDCF81E0ACCF82E024
:101D0000AACF83E0A8CF84E0A6CF85E0A4CF86E069
:101D1000A2CF87E0A0CF88E09ECF89E09CCF8AE069
:101D20009ACFF89481E08093E00080E28093D8001D
:101D3000E9ECF0E010828FE19EE40197F1F700C03A
:101D400000001DBA109268001CBC10BE1FBA109291
:101D50007A0010926E0010926F0010927100109233
:101D600072001082ECEBF0E0108214B817B81AB8C9
:101D70001DB810BA108215B818B81BB81EB811BA21
:101D80000C94003F08958091E80080FFFCCF0895F7
:101D900081E08093D70080EA8093D80082E189BDFA
:101DA00009B400FEFDCF80E98093D8001092E000D6
:101DB0001092E1018CE08093E20078940895809184
:101DC000E10108958091E101811102C08FEF089532
:101DD0008FB7F89493E09093E9009091E4009E5CB3
:101DE00023E03091E80035FD0EC08FBF8091E10106
:101DF000882361F38091E400981741F38FB7F8943A
:101E00002093E900EECF9091E0019093F1001092C1
:101E1000F100EAEDF1E091919093F10091E0E03E64
:101E2000F907C9F79AE39093E8001092D9018FBFA0
:101E300080E008951F920F920FB60F9211248F9396
:101E40009F93EF93FF938091E1001092E10083FF55
:101E50000FC01092E90091E09093EB001092EC001B
:101E600092E29093ED0098E09093F0001092E101DF
:101E700082FF33C08091E101882379F180911801BC
:101E8000882359F18091D7018F5F8093D7018370A8
:101E900021F583E08093E9008091E80085FF1DC073
:101EA0008091D9018F5F8093D90190911801891396
:101EB00014C01092D9018091E0018093F10010923A
:101EC000F100EAEDF1E081918093F10081E0E03EE4
:101ED000F807C9F78AE38093E800FF91EF919F919B
:101EE0008F910F900FBE0F901F9018951F920F9219
:101EF0000FB60F921124FF920F931F932F933F93CE
:101F00004F935F936F937F938F939F93AF93BF9301
:101F1000CF93DF93EF93FF931092E9008091E80055
:101F200083FF23C1F090F1008091F100C091F10096
:101F30009091F100D0E0D92B0091F1009091F10047
:101F400010E0192B2091F1006091F10092EF909335
:101F5000E800863009F049C084E291E145E551E1AD
:101F6000FC01A591B491CA17DB07D9F4FC013296A4
:101F7000A591B4910A171B07A1F4FC013496459171
:101F80005491FC013696849130E0362B2F3F310579
:101F900019F010F02FEF30E0281708F4822F3EEFF1
:101FA0000CC0079648175907D9F6DFC0490F511DD5
:101FB000891B3093E8008823A9F09091E800292F2D
:101FC0002570D9F392FDD4C0982F813208F090E2A9
:101FD000FA01292F222351F364916093F1002150DB
:101FE0003196F8CF903249F3C3C0853041F48EEF7B
:101FF0008093E800C8DEC068C093E300B9C08930B0
:1020000039F5F1106AC0C093E1018EEF8093E800CA
:1020100041E08EE192E14093E9009C012F5F3F4F48
:10202000FC0154915093EB00552359F0F901249190
:102030002093EC009C012D5F3F4F3196E491E0939B
:10204000ED004F5F453011F0C901E5CF8EE140C092
:10205000883039F4F0E8FF1240C095DE8091E1014C
:1020600061C0811114C08FDE82E8F8120AC00093AB
:10207000E9008091EB0085FB882780F91092E90048
:1020800001C080E08093F1001092F1006AC0982FA7
:102090009D7F913011F592E0F9121FC0CD2B09F010
:1020A00064C00F779FEF900F943008F05EC09EEFF2
:1020B0009093E8000093E900833009F456C089E169
:1020C0008093EB0081E090E001C0880F0A95EAF769
:1020D0008093EA001092EA004BC0012B09F045C042
:1020E000E1EAFE1222C0813091F44DDE8091E001E0
:1020F0008093F1001092F100EAEDF1E080EE91E0C2
:1021000021912093F1008E179F07D1F72AC08230CA
:1021100021F439DE8091180105C0833031F533DEBA
:10212000809119018093F1001CC0F1E2FF121DC0E3
:10213000893061F48091E80082FFFCCF8091F1004A
:102140008093D8018BEF8093E8000BC08A3029F48C
:10215000D09318011092D90104C08B3031F4C09390
:1021600019018EEF8093E80003C081E28093EB00B9
:10217000FF91EF91DF91CF91BF91AF919F918F919F
:102180007F916F915F914F913F912F911F910F918F
:10219000FF900F900FBE0F901F901895EE0FFF1F2E
:0C21A0000590F491E02D0994F894FFCF15
:1021AC000100000000000000000000000000000022
:0A21BC00000000001B016F017D010F
:00000001FF
